:100000000C9434000C9451000C9451000C94510049
:100010000C9451000C9451000C9451000C9451001C
:100020000C9451000C9451000C9451000C9451000C
:100030000C9451000C9451000C9451000C945100FC
:100040000C9451000C9451000C9451000C945100EC
:100050000C9451000C9451000C9451000C945100DC
:100060000C9451000C94510011241FBECFEFD8E026
:10007000DEBFCDBF11E0A0E0B1E0ECEBF7E002C0E5
:1000800005900D92AE34B107D9F721E0AEE4B1E0AE
:1000900001C01D92A435B207E1F70E9453000C94F1
:1000A000DC030C9400000E947C008EE091E09093B1
:1000B00051018093500180E091E090934F01809333
:1000C0004E01C0E3D1E08CE191E00E94F700809105
:1000D0004E0190914F010E94A300282F082E000C82
:1000E000330B3F938F93DF93CF930E94E1000F90E8
:1000F0000F900F900F90E7CF1092C50087E6809386
:10010000C400E0ECF0E080818D7F808386E0809306
:10011000C20088E18093C1000895CF93C82F8A3030
:1001200019F48DE00E948D008091C00085FFFCCF06
:10013000C093C600CF9108958091C00087FFFCCF87
:100140008091C6000895CF93DF93EC012B8120FFAF
:1001500033C026FF0AC02F7B2B838E819F8101969F
:100160009F838E838A8190E029C022FF0FC0E8819F
:10017000F9818081082E000C990B009719F42062F8
:100180002B831AC03196F983E8830EC0EA85FB857C
:10019000099597FF09C02B81019611F080E201C0FB
:1001A00080E1822B8B8308C02E813F812F5F3F4FE0
:1001B0003F832E83992702C08FEF9FEFDF91CF916E
:1001C0000895A0E0B0E0E7EEF0E00C94B503AE01D6
:1001D0004B5F5F4FFA0161917191AF0180915001C6
:1001E000909151010E942701E2E00C94D1030F93FA
:1001F0001F93CF93DF93E0915001F0915101238140
:1002000021FF1BC08C01D0E0C0E0F80181918F017B
:100210006091500170915101DB011896ED91FC91B4
:100220001997882331F00995892B79F3DFEFCFEF08
:10023000ECCF8AE00995892B19F08FEF9FEF02C070
:100240008D2F9C2FDF91CF911F910F910895ACE0DE
:10025000B0E0EDE2F1E00C94A5037C016B018A01B2
:10026000FC0117821682838181FFBDC1CE010196F8
:100270004C01F7019381F60193FD859193FF8191E4
:100280006F01882309F4ABC1853239F493FD859160
:1002900093FF81916F01853229F4B70190E00E94AC
:1002A0000F03E7CF512C312C20E02032A0F48B3209
:1002B00069F030F4803259F0833269F420612CC047
:1002C0008D3239F0803339F4216026C022602460F9
:1002D00023C0286021C027FD27C030ED380F3A30F9
:1002E00078F426FF06C0FAE05F9E300D1124532EED
:1002F00013C08AE0389E300D1124332E20620CC0CA
:100300008E3221F426FD6BC1206406C08C3611F4B8
:10031000206802C0883641F4F60193FD859193FF71
:1003200081916F018111C1CF982F9F7D955493309A
:1003300028F40C5F1F4FFFE3F9830DC0833631F0C3
:10034000833771F0833509F05BC022C0F8018081EA
:1003500089830E5F1F4F44244394512C540115C0D0
:100360003801F2E06F0E711CF801A080B18026FF09
:1003700003C0652D70E002C06FEF7FEFC5012C87D1
:100380000E9404032C0183012C852F77222E17C095
:100390003801F2E06F0E711CF801A080B18026FFD9
:1003A00003C0652D70E002C06FEF7FEFC5012C87A1
:1003B0000E94F9022C012C852068222E830123FC47
:1003C0001BC0832D90E048165906B0F4B70180E2B7
:1003D00090E00E940F033A94F4CFF50127FC859139
:1003E00027FE81915F01B70190E00E940F03311059
:1003F0003A94F1E04F1A51084114510471F7E5C0E5
:10040000843611F0893639F5F80127FF07C060817D
:100410007181828193810C5F1F4F08C0608171815F
:10042000072E000C880B990B0E5F1F4F2F76722E34
:1004300097FF09C090958095709561957F4F8F4F7C
:100440009F4F2068722E2AE030E0A4010E944703EB
:10045000A82EA81844C0853729F42F7EB22E2AE092
:1004600030E025C0F22FF97FBF2E8F36C1F018F48F
:10047000883579F0B4C0803719F0883721F0AFC0E3
:100480002F2F2061B22EB4FE0DC08B2D8460B82EAC
:1004900009C024FF0AC09F2F9660B92E06C028E02D
:1004A00030E005C020E130E002C020E132E0F80198
:1004B000B7FE07C060817181828193810C5F1F4FFD
:1004C00006C06081718180E090E00E5F1F4FA40143
:1004D0000E944703A82EA818FB2DFF777F2E76FEDB
:1004E0000BC0372D3E7FA51450F474FE0AC072FC79
:1004F00008C0372D3E7E05C0BA2C372D03C0BA2C5C
:1005000001C0B52C34FF0DC0FE01EA0DF11D808144
:10051000803311F4397E09C032FF06C0B394B3941E
:1005200004C0832F867809F0B39433FD13C030FFE5
:1005300006C05A2CB31418F4530C5B18B32CB31424
:1005400068F4B70180E290E03C870E940F03B39407
:100550003C85F5CFB31410F43B1801C0312C34FFA7
:1005600012C0B70180E390E03C870E940F033C85F6
:1005700032FF17C031FD03C088E790E002C088E574
:1005800090E0B7010CC0832F867859F031FF02C08C
:100590008BE201C080E237FD8DE2B70190E00E945E
:1005A0000F03A51438F4B70180E390E00E940F0315
:1005B0005A94F7CFAA94F401EA0DF11D8081B70196
:1005C00090E00E940F03A110F5CF332009F451CE23
:1005D000B70180E290E00E940F033A94F6CFF70152
:1005E0008681978102C08FEF9FEF2C96E2E10C94F9
:1005F000C103FC010590615070400110D8F780954F
:1006000090958E0F9F1F0895FC01615070400190DE
:100610000110D8F7809590958E0F9F1F08950F9326
:100620001F93CF93DF93FB01238121FD03C08FEF45
:100630009FEF28C022FF16C0468157812481358153
:100640004217530744F4A081B1819D012F5F3F4FB2
:10065000318320838C93268137812F5F3F4F3783EF
:10066000268310C0EB01092F182F0084F185E02D9F
:100670000995892BE1F68E819F8101969F838E8358
:10068000812F902FDF91CF911F910F910895FA0143
:10069000AA27283051F1203181F1E8946F936E7FC1
:1006A0006E5F7F4F8F4F9F4FAF4FB1E03ED0B4E0B2
:1006B0003CD0670F781F891F9A1FA11D680F791FF3
:1006C0008A1F911DA11D6A0F711D811D911DA11D04
:1006D00020D009F468943F912AE0269F1124301914
:1006E000305D3193DEF6CF010895462F4770405DAF
:1006F0004193B3E00FD0C9F7F6CF462F4F70405D5E
:100700004A3318F0495D31FD4052419302D0A9F7B8
:10071000EACFB4E0A6959795879577956795BA95B2
:10072000C9F700976105710508959B01AC010A2E78
:1007300006945795479537952795BA95C9F7620F4F
:10074000731F841F951FA01D08952F923F924F92F3
:100750005F926F927F928F929F92AF92BF92CF9251
:10076000DF92EF92FF920F931F93CF93DF93CDB75A
:10077000DEB7CA1BDB0B0FB6F894DEBF0FBECDBFD2
:1007800009942A88398848885F846E847D848C84A3
:100790009B84AA84B984C884DF80EE80FD800C81AC
:1007A0001B81AA81B981CE0FD11D0FB6F894DEBF8F
:0C07B0000FBECDBFED010895F894FFCFFF
:1007BC00000000010000000000009C000000000090
:1007CC000002000000008D0000000000456E7669FC
:1007DC006520756D206361726163746572653A00A2
:1007EC004F2063617261637465726520656E766912
:0E07FC0061646F20666F693A2025630A000071
:00000001FF
